:020000040000FA
:0400000000000528CF
:080008000228092027208120B5
:100010000628831603130A309F00850107308500E8
:100020008601870188018901C0308B008312031388
:10003000383064200E3064200230642001306420A7
:1000400008007C201F150C1F23280C1308004030CB
:100050009F0021201530A900A90B2C281E08AA00FA
:100060002A08143C031C35283A282A08193C031C8A
:100070003D283F28881208143F28081088160812C7
:1000800041309F0021201530A900A90B45281E08EA
:10009000AB002B082D3C031C4E2850280816502876
:1000A00008114A309F0021201530A900A90B5628BD
:1000B0001E08AC002C08143C031C62284E280815AE
:1000C0008E2008008E20080086000710071500000B
:1000D0000711871074200800860007140715000018
:1000E00007118710742008008030A200A301A30B21
:1000F0007728A20B772808001530A400A40B7E28CF
:1001000008008030642045306C203D306C209F20FA
:1001100063306C20CF2053306C20D5203F308C00D2
:10012000B4308D00D6308E0012308F008C0B9628A4
:100130008D0B96288E0B96288F0B96280800A5010C
:10014000A601A701AA080319B428AA03A50A25082D
:10015000053C031DA228A60AA5012608053C031D8F
:10016000A228A70AA601A228303027076C20023057
:100170006420303026076C200230642030302507A0
:100180006C200230642042306C20023064205030F9
:100190006C20023064204D306C20023064202C082A
:1001A000143C0318DB28E42808002B082D3C031816
:1001B000EB28F028080048306C2067306C2036307F
:1001C0006C2068306C2008003C306C206F306C2054
:1001D00077306C2008003F306C206E306C200800B7
:0E01E0003F306C2066306C2066306C200800CA
:02400E0039393E
:00000001FF
